:100000000C9481000C9476060C94A9000C94A90021
:100010000C94A9000C94A9000C94A9000C94A900BC
:100020000C94A9000C94A9000C94A9000C94A900AC
:100030000C94A9000C94A9000C94A9000C94A9009C
:100040000C940D050C94A9000C94A9000C94A90023
:100050000C94A9000C94A9000C94A9000C94A9007C
:100060000C9457050C94A900036EDB363D9A9999C0
:10007000993DABAAAA2A3E000000803F072C7AA532
:10008000BA6CC590DA3B9365FC8BBC53F810FD3C11
:100090005692834DBD879D3AB63DCBC9BF5BBE73BB
:1000A000DA0FC93F00000008000201000003040746
:1000B00000000000000000000000000025002800F3
:1000C0002B0000000000240027002A000404040480
:1000D00004040404020202020202030303030303F2
:1000E00001020408102040800102040810200102CF
:1000F000040810200A0B0C0D0E0F0001020304056A
:10010000970611241FBECFEFD8E0DEBFCDBF22E09F
:10011000A0E2B1E001C01D92A532B207E1F711E003
:10012000A0E0B1E0E4E5FBE102C005900D92A03251
:10013000B107D9F710E0C1E8D0E004C02197FE0173
:100140000E94990DC038D107C9F70E94CF060C94C0
:10015000A80D0C94000090E0FC01E052FF4F2491A8
:1001600084539F4FFC018491882399F090E0880F7D
:10017000991FFC01EE53FF4FA591B491FC01E85487
:10018000FF4F859194918FB7F894EC91E22BEC930B
:100190008FBF08950895089590E0FC01EC55FF4F3E
:1001A0002491FC01E052FF4F3491FC01E453FF4FD6
:1001B000E491EE23C9F0222339F0233001F1A8F4B1
:1001C000213019F1223029F1F0E0EE0FFF1FE85441
:1001D000FF4FA591B4918FB7F894EC91611126C0AF
:1001E00030953E233C938FBF08952730A9F02830E7
:1001F000C9F0243049F7809180008F7D03C0809141
:1002000080008F7780938000DFCF84B58F7784BDA7
:10021000DBCF84B58F7DFBCF8091B0008F7780934B
:10022000B000D2CF8091B0008F7DF9CF3E2BDACFD6
:10023000682F809109020E94CC0080912102909148
:1002400022028230910538F0880F991F880F991F7C
:1002500005970197F1F7089581E00C94180120911A
:100260000702309108024091090250910A022417B6
:10027000350721F0682F822F0C94CC0008953FB7EA
:10028000F8948091660190916701A0916801B09106
:10029000690126B5A89B05C02F3F19F00196A11D45
:1002A000B11D3FBFBA2FA92F982F8827BC01CD01C0
:1002B000620F711D811D911D42E0660F771F881F1F
:1002C000991F4A95D1F7089520914201260F3327AF
:1002D000331F21323105ECF42091CE01FC0190E076
:1002E00080E0243069F082E00895A09142012191DC
:1002F000AC014E5D5E4FA40FB52FB11D2C9301963E
:10030000861798F380914201680F6093420180E064
:10031000089581E008951092CE0181E08093CD018F
:100320001092A80161E082E10E94CC0061E083E1CB
:100330000E94CC00E9EBF0E080818E7F8083808199
:100340008D7F808388E48093B80085E48093BC002F
:100350000895CF93DF9391E0909321018823B9F022
:10036000C091B800D091BA008091BC008A7B809384
:10037000BC0060E082E10E94CC0060E083E10E946A
:10038000CC000E948B01D093BA00C093B800DF91DB
:10039000CF9108958F929F92AF92BF92CF92DF92AA
:1003A000EF92FF920F931F93CF93DF93D091F701BA
:1003B000D13208F0D7C0182FC091F6010E943F013A
:1003C0006B017C018091CE0181116BC082E0809332
:1003D000CE011093CD018FEF8093CC011092CB0111
:1003E000D093CA01A6EDB1E0EAEAF1E080E0D813CB
:1003F00091C01092A9018091A901CC0FC82BC09384
:10040000A9018091A801813009F088C01092A8014B
:100410000E943F016B017C018091A9018093BB0088
:100420008091D0019091D101A091D201B091D301DE
:10043000892B8A2B8B2BA1F00E943F010091D001C8
:100440001091D1012091D2013091D3016C197D0915
:100450008E099F09061717072807390708F442C0B5
:100460008091BC0083FDD8CF85EC8093BC000E94B6
:100470003F016B017C018091CE01823009F450C0B4
:100480008091CC018F3F09F46FC08091CC01803204
:1004900009F46CC08091CC01803309F469C084E018
:1004A00026C08091D0019091D101A091D201B0914C
:1004B000D301892B8A2B8B2B09F484CF0E943F0117
:1004C0008090D0019090D101A090D201B090D30142
:1004D0006C197D098E099F0986169706A806B9062C
:1004E00008F070CF8091CF010E94A90185E01092A1
:1004F000D5011092F7011092D401DF91CF911F9195
:100500000F91FF90EF90DF90CF90BF90AF909F90B2
:100510008F9008959D9191938F5F69CF85EEA5CFC0
:100520008091D0019091D101A091D201B091D301DD
:10053000892B8A2B8B2B09F49ECF0E943F010091BF
:10054000D0011091D1012091D2013091D3016C19C9
:100550007D098E099F09061717072807390708F034
:100560008ACFC0CF81E0C3CF80E0C1CF82E0BFCFD0
:1005700083E0BDCF0895E091700180916F01E8178D
:1005800030F4F0E0EF58FE4F808190E008958FEF57
:100590009FEF08959091700180916F012FEF3FEFD1
:1005A000981748F4E92FF0E0EF58FE4F208130E033
:1005B0009F5F90937001C901089580916F019091A0
:1005C0007001891B990B0895CF92DF92EF92FF92F1
:1005D0000F931F93CF93DF937C01CB018A0120916E
:1005E000D401222389F0EB016B01C40ED51ECC157A
:1005F000DD0569F06991D701ED91FC910190F081E1
:10060000E02DC7010995F3CF642F0E946401C80152
:10061000DF91CF911F910F91FF90EF90DF90CF90DE
:100620000895CF93DF931F92CDB7DEB769832091F2
:10063000D4012223F9F02091F701203258F021E073
:1006400030E0FC013383228390E080E00F90DF9163
:10065000CF9108958091D501E82FF0E0EA52FE4F46
:10066000998190838F5F8093D5018093F70181E01A
:1006700090E0ECCF61E0CE0101960E946401F7CFDB
:1006800090E080E008958EBD00000DB407FEFDCF20
:100690008EB5089597FF19C05E9A5D9884302CEF4F
:1006A000920744F58CEF93E020910101211126C0BF
:1006B0002091800020622093800090938B00809393
:1006C0008A0081E08093010108955D9A5E988D3FD4
:1006D00023E092073CF7009739F72091010122238C
:1006E00069F0809180008F7D809380002A9810921D
:1006F00001010895919581959109D6CF209101012D
:10070000222321F090938B0080938A00089597FF15
:1007100019C05C9A599884302CEF920744F58CEFFD
:1007200093E020910001211126C0209180002068D3
:1007300020938000909389008093880081E08093CB
:1007400000010895599A5C988D3F23E092073CF789
:10075000009739F720910001222369F080918000F1
:100760008F778093800029981092000108959195C9
:1007700081959109D6CF20910001222321F09093F9
:1007800089008093880008950F931F9300910B02B6
:1007900010910C0220910D0230910E0240E052E1C6
:1007A0006AE770E080E0041715072607370740F472
:1007B00076956795579547958F5F8630A1F787E0C7
:1007C000982F906A9695809581709CBD8DBD80E034
:1007D0001F910F910C941801CF93C82F0E94C4034E
:1007E0008C2F80620E94430380930F02CF910C9460
:1007F0002C0181EE0E94EC0380910F020895CF93AB
:10080000C82F0E94C4038C2F0E94430380930F02C1
:100810008FEF0E944303C82F0E942C018C2FCF9191
:100820000895FF920F931F93CF93DF93C82FF62E57
:10083000072F142F0E94C4038C2F80620E94430351
:1008400080930F02CF2DD02F115020F089910E945C
:100850004303FACFDF91CF911F910F91FF900C943A
:100860002C01CF93DF93C5E0D2E04D8962E071E0C7
:100870008AE00E9411044D8962E071E080E1DF911D
:10088000CF910C9411040E94C40380E50E9443039D
:1008900080930F0283E70E9443030C942C01CF93B3
:1008A000DF93D82FC62F0E94C4038D2F80620E9431
:1008B000430380930F028C2F0E944303DF91CF915B
:1008C0000C942C016091160261FD0AC06260609375
:1008D000160280E00E944F048BE19EE40197F1F73D
:1008E00008950E946204609116026160609316028E
:1008F00080E00E944F0460E787E00E944F0481E09F
:100900000E942F0180911802882339F040911A0229
:1009100061E172E08AE00C94110482E00E94FF031E
:10092000EAEFF0E0E49121E030E001C0220FEA9527
:10093000EAF72095622F682382E00E944F0410920C
:1009400018020895E4EFF0E0849140911A0268E003
:1009500071E00E94110482E00E94FF03EAEFF0E0E0
:10096000E49161E070E001C0660FEA95EAF7682B58
:1009700082E00C944F0485ED8093BC008091D001FF
:100980009091D101A091D201B091D3010796A11D00
:10099000B11D23E0B695A795979587952A95D1F730
:1009A0002091BC0024FD03C01092CE010895409117
:1009B000D0015091D1016091D2017091D301452BAA
:1009C000462B472B69F30097A105B10541F025E3BC
:1009D0002A95F1F700000197A109B109E1CF8091B3
:1009E000CF010C94A901CF93DF9382EE0E94EC0318
:1009F0000E947104C5E0D2E04D8950E068E071E0EA
:100A000081E192E00E949F0D81E08B8B0E94A20405
:100A100010929601DF91CF9108951F920F920FB619
:100A20000F9211242F933F938F939F93AF93BF9374
:100A30008091910190919201A0919301B0919401C4
:100A40003091650123E0230F2D3758F50196A11D44
:100A5000B11D209365018093910190939201A09321
:100A60009301B09394018091660190916701A091E8
:100A70006801B09169010196A11DB11D80936601C5
:100A800090936701A0936801B0936901BF91AF9102
:100A90009F918F913F912F910F900FBE0F901F90BC
:100AA000189526E8230F0296A11DB11DD2CF1F92E3
:100AB0000F920FB60F9211242F933F934F935F9392
:100AC0006F937F938F939F93AF93BF93EF93FF9316
:100AD0008091B900887F803609F44AC0F0F58832E9
:100AE00009F4A7C018F5803109F49BC0B8F4882335
:100AF00009F4F9C0883009F494C0FF91EF91BF91D7
:100B0000AF919F918F917F916F915F914F913F91A5
:100B10002F910F900FBE0F901F901895883109F4F8
:100B200088C0803251F78093CC0114C0803409F41E
:100B30009DC040F48033B9F38833F9F68093CC013B
:100B400085ECB0C0803509F485C0883509F496C0BD
:100B5000883499F60E94BB04D0CF883909F48CC040
:100B600038F5883729F050F4883611F0803729F6A7
:100B700083E08093CE011092640157C0883809F455
:100B80007BC0803919F0803809F0B7CF80916401BB
:100B9000803208F071C0E091640181E08E0F809393
:100BA00064018091BB00F0E0EC5BFE4F80833DC0B0
:100BB000803B39F0E0F4803A09F479C0883A09F0D2
:100BC0009CCF84E08093CE011092430110924201A9
:100BD000E0916D01F0916E010995809142018111C2
:100BE0000FC081E0809342011092220109C0803C35
:100BF00009F4A6CF883C09F4A3CF883B09F07DCF48
:100C0000E091430181E08E0F80934301F0E0EE5DBF
:100C1000FE4F80818093BB009091430180914201FF
:100C200029C08091A9018093BB0085EC8093BC0012
:100C300064CF9091CB018091CA01981758F5E0914B
:100C4000CB0181E08E0F8093CB01F0E0E655FE4FA3
:100C50008081E9CFE091CB0181E08E0F8093CB01C1
:100C60008091BB00F0E0E655FE4F80839091CB0170
:100C70008091CA019817C8F285E8D8CFE091CB01DE
:100C800081E08E0F8093CB018091BB00F0E0E655B0
:100C9000FE4F80838091CD0181115CCF81E08093F4
:100CA000A80184EA8093BC001092CE0126CF85EC87
:100CB0008093BC001092CE0180916401803230F4A8
:100CC000E0916401F0E0EC5BFE4F10826091640102
:100CD00070E0E0916B01F0916C0184E491E0099582
:100CE000109264010ACF1092CC0134CF1F920F9260
:100CF0000FB60F9211248F939F9380912001811141
:100D00000CC081E0809320011092B2009F918F91DE
:100D10000F900FBE0F901F90189510922001809198
:100D2000B20090E09093A7018093A601EFCFE8EF87
:100D3000F1E01382128288EE93E0A0E0B0E08483B9
:100D40009583A683B78382E191E091838083E5E078
:100D5000F2E088E090E09383828387E090E09583DF
:100D6000848380E896E9A8E9B0E086839783A0872A
:100D7000B18780E28387128A138A85E0858B81E0C0
:100D8000868B85E090E0A0E0B0E0848F958FA68F01
:100D9000B78F84E092E091838083148608957894DD
:100DA00084B5826084BD84B5816084BD85B5826070
:100DB00085BD85B5816085BD80916E008160809321
:100DC0006E0010928100809181008260809381008A
:100DD000809181008160809381008091800081609A
:100DE000809380008091B10084608093B1008091F5
:100DF000B00081608093B00080917A00846080931D
:100E00007A0080917A00826080937A0080917A00E3
:100E1000816080937A0080917A00806880937A0064
:100E20001092C10084B1866084B983E08093800011
:100E30008CE08093810090E080E00E94870390E046
:100E400080E00E944A038AB182618AB98AB18066D1
:100E50008AB9539A80916900816080936900E89A09
:100E60008091B10085608093B1007894CFB7F894F9
:100E700080916A01811124C0E6EDF0E08491EAEEF0
:100E8000F0E09491E82FF0E0EE0FFF1FEE53FF4FDC
:100E9000A591B491EC91E92321F461E08AE00E94EC
:100EA000CC008AE00E94AB008CB580618CBD8CB513
:100EB00080648CBD8DE00E94AB008BE00E94AB0093
:100EC00080916A018F5F80936A01CFBF8091070292
:100ED000909108028F3F980709F4A8C02091090259
:100EE00030910A022F3F320709F4A0C082179307FE
:100EF00031F00E94AB00809109020E94AB0080E0BB
:100F00000E942F0181E00E9418010E943F014B01C5
:100F10005C01C5E0CC2ED12CE12CF12C0E943F01CC
:100F2000681979098A099B09683E73408105910512
:100F3000A8F381E0C81AD108E108F10898EE890EFB
:100F400093E0991EA11CB11CC114D104E104F10469
:100F500029F76FE584E00E944F0486E00E94FF03BA
:100F600045E550E060E070E040931D0250931E02A2
:100F700060931F0270932002682F677D86E00E94B5
:100F80004F0486E00E94FF038DE10E94FF03C82FFB
:100F90000E9443048DE10E94FF0391E0C81390E09A
:100FA00090931702882341F0C81302C00E944304A3
:100FB00060E08DE10E944F041092190260E08CE124
:100FC0000E944F0410921B026FE381E00E944F04C5
:100FD00063E082E00E944F0480E280931002C1E14E
:100FE000609110028C2F0E944F04CF5FC731C1F770
:100FF00063E083E00E944F0485E080931A026CE472
:101000000E944F0460E787E00E944F0482EE0E9436
:10101000EC030E94F9036CE080E00E944F0480E042
:101020000E94FF03809316020E94620486E00E94E1
:10103000FF03887F682F616086E00E944F040E9452
:10104000310440911A0250E068E071E081E192E0E1
:101050000E949F0DC1E0C09318020E94A2040E944A
:1010600071040E94F90382EE0E94EC0380917C00DF
:10107000806480937C0080917A00876880937A00F6
:1010800088E48093B8001092700110926F01109262
:10109000D5011092F7010E948B018AEC90E09093A9
:1010A0006E0180936D018BEC90E090936C018093C6
:1010B0006B01C093D40188E68093F6016BE688EF5C
:1010C00091E00E94110360E088EF91E00E9411031B
:1010D00081E00E94CA01FFEF29EF40E0F15020407B
:1010E0004040E1F700C00000E5EC2E2EFAEFAF2EF5
:1010F000F0E0BF2E88248394912CB0E0CB2EB0E09A
:10110000DB2E33243A94C1E08FEF92E5E7E0815083
:101110009040E040E1F700C000005B9AF5E3FA95EB
:10112000F1F700005B988091A6019091A701909340
:10113000A1018093A00180917A00806480937A005D
:1011400080917A0086FDFCCF8091780090917900A3
:1011500090939F0180939E019093A5018093A40199
:10116000C093D40128E62093F6011092D501109285
:10117000F7016BE388EF91E00E94110380E00E9489
:10118000CA010E943F012B013C018091CE018111D7
:1011900061C0C093CE01C093CD013092CC011092BA
:1011A000CB01C093CA01C093A9018091A901806DB0
:1011B0008093A9018091A801813009F0E6C01092C6
:1011C000A8010E943F012B013C018091A90180935D
:1011D000BB008091D0019091D101A091D201B0913A
:1011E000D301892B8A2B8B2BA1F00E943F012091E8
:1011F000D0013091D1014091D2015091D3016419B5
:10120000750986099709261737074807590708F40B
:1012100042C08091BC0083FDD8CF2092BC000E94C8
:101220003F012B013C018091CE01813009F4B1C016
:101230008091CB01823008F0CEC08091CB01AAEA28
:10124000B1E0E1E7F1E090E0981751F12D912193A1
:101250009F5FFACF8091D0019091D101A091D201EE
:10126000B091D301892B8A2B8B2B09F48ECF0E944E
:101270003F012091D0013091D1014091D201509194
:10128000D301641975098609970926173707480796
:10129000590708F07ACF8091CF010E94A90180E020
:1012A0001092700180936F0188EF91E00E94CA0252
:1012B000F82E88EF91E00E94CA0200E0802B9F295F
:1012C000BC01990F880B990B0E94EA0B20E030E0DB
:1012D00048EC52E40E94400B20E030E048ED51E43D
:1012E0000E94B80A20E030E044E353E40E94400B3F
:1012F0000E94250B20E030E044E353E40E94D10C2F
:1013000023EC35EF48E450E40E94400B0E94B20BFE
:1013100070939D0160939C017093A3016093A2015F
:101320008091990190919A010E9487038091970181
:10133000909198010E944A0380919601813009F0B2
:10134000A2C080911B02D0E066E0662E811108C029
:10135000D09110026D2ED73010F076E0672ED6199E
:101360000E94C40380EA0E94430380930F0250EA64
:10137000E52E51E0F52E6A948FEF681671F1F701B2
:1013800081917F010E944303F6CF45EE4093BC005C
:1013900046CF8091D0019091D101A091D201B0911E
:1013A000D301892B8A2B8B2B09F43DCF0E943F015F
:1013B0002091D0013091D1014091D2015091D301BF
:1013C00064197509860997092617370748075907C9
:1013D00008F029CF60CF82E032CFD15020F080E0FA
:1013E0000E944303FACF0E942C0181E00E942F014A
:1013F0008FB7F894409091015090920160909301C2
:10140000709094018FBF8FEF0E94EC0380910F02C8
:101410008073E1F42FB7F89480919101909192013B
:10142000A0919301B09194012FBF84199509A60949
:10143000B70980369105A105B10528F3C0931C02B8
:10144000809195018F5F809395010DC080E00E948F
:101450002F0160E787E00E944F0480910F0284FD16
:101460000FC00E94F30480919501853010F00E9416
:10147000F304C114D10409F447CE0E94000043CE06
:101480000E94F903DDCF8FEF0E94EC0380910F02E1
:1014900090E0959587958770863058F780911B026C
:1014A000712CD5E0811108C080911002D82F8630B0
:1014B00008F0D5E0782E7D1A0E94C40381E60E94D0
:1014C000430380930F0237E9E32E31E0F32ED1502E
:1014D00038F08FEF0E944303F70181937F01F7CF2C
:1014E0007A94FFEF7F1621F08FEF0E944303F8CF2D
:1014F0000E942C0160E487E00E944F0480919B01D0
:10150000813009F0B6CF0E94F90380E00E942F01DC
:1015100080911D0290911E028230910538F0880F53
:10152000991F880F991F05970197F1F7809119026C
:1015300081110E94F903609116026E7F609316027A
:1015400080E00E944F0482E00E94FF03F501949125
:10155000B40101C0660F9A95EAF7682B82E00E94F9
:101560004F040E943104C09396011092950181CFDF
:101570005058BB27AA270E94D00A0C94970C0E94AF
:10158000890C38F00E94900C20F039F49F3F19F438
:1015900026F40C944B0C0EF4E095E7FB0C94450CF0
:1015A000E92F0E94A80C58F3BA1762077307840743
:1015B000950720F079F4A6F50C94CA0C0EF4E0958A
:1015C0000B2EBA2FA02D0B01B90190010C01CA01FD
:1015D000A0011124FF27591B99F0593F50F4503EA8
:1015E00068F11A16F040A22F232F342F4427585F9A
:1015F000F3CF469537952795A795F0405395C9F7B2
:101600007EF41F16BA0B620B730B840BBAF0915069
:10161000A1F0FF0FBB1F661F771F881FC2F70EC008
:10162000BA0F621F731F841F48F4879577956795DB
:10163000B795F7959E3F08F0B0CF9395880F08F0C7
:101640009927EE0F9795879508959F939F77EEE3DF
:1016500089379E0728F4E8E6F0E00E94750C0CC07C
:101660000E94250C9058A2EA2AED3FE049EC5FE386
:101670000E94D00A0E94970C0F9007FC9058089582
:101680000E94540B0C94970C0E94900C58F00E94EE
:10169000890C40F029F45F3F29F00C94450C51115E
:1016A0000C94CB0C0C944B0C0E94A80C68F399235F
:1016B000B1F3552391F3951B550BBB27AA2762174E
:1016C0007307840738F09F5F5F4F220F331F441F5B
:1016D000AA1FA9F335D00E2E3AF0E0E832D091508F
:1016E0005040E695001CCAF72BD0FE2F29D0660F7C
:1016F000771F881FBB1F261737074807AB07B0E8BF
:1017000009F0BB0B802DBF01FF2793585F4F3AF0C4
:101710009E3F510578F00C94450C0C94CB0C5F3F28
:10172000E4F3983ED4F3869577956795B795F7954A
:101730009F5FC9F7880F911D9695879597F9089532
:10174000E1E0660F771F881FBB1F621773078407CE
:10175000BA0720F0621B730B840BBA0BEE1F88F7DD
:10176000E09508950E94B90B6894B1110C94CB0CCC
:1017700008950E94B00C88F09F5798F0B92F9927D0
:10178000B751B0F0E1F0660F771F881F991F1AF06C
:10179000BA95C9F714C0B13091F00E94CA0CB1E0FB
:1017A00008950C94CA0C672F782F8827B85F39F0FA
:1017B000B93FCCF3869577956795B395D9F73EF405
:1017C00090958095709561957F4F8F4F9F4F0895AD
:1017D000E89409C097FB3EF49095809570956195CB
:1017E0007F4F8F4F9F4F9923A9F0F92F96E9BB2781
:1017F0009395F695879577956795B795F111F8CFFD
:10180000FAF4BB0F11F460FF1BC06F5F7F4F8F4F67
:101810009F4F16C0882311F096E911C0772321F05D
:101820009EE8872F762F05C0662371F096E8862FF5
:1018300070E060E02AF09A95660F771F881FDAF74C
:10184000880F9695879597F90895DF93CF931F9307
:101850000F938B01EC01ECE7F0E00E944E0C0E942C
:10186000970C9801AE018B01EC0160E070E080E81C
:101870009FE30E94B80A0E94440D9801AE010F91A7
:101880001F91CF91DF910C94E40C97F99F6780E84A
:1018900070E060E008959FEF80EC0895DF93CF93B0
:1018A0001F930F93FF92EF92DF927B018C0168945C
:1018B00006C0DA2EEF010E94E40CFE01E894A59127
:1018C0002591359145915591A6F3EF010E94D00ADB
:1018D000FE019701A801DA9469F7DF90EF90FF907D
:1018E0000F911F91CF91DF9108959F938F937F93D5
:1018F0006F93FF93EF939B01AC010E94D10CEF918A
:10190000FF910E944E0C2F913F914F915F910C944B
:10191000D10C00240A941616170618060906089515
:1019200000240A9412161306140605060895092EBB
:101930000394000C11F4882352F0BB0F40F4BF2B2A
:1019400011F460FF04C06F5F7F4F8F4F9F4F08956A
:1019500057FD9058440F551F59F05F3F71F0479560
:10196000880F97FB991F61F09F3F79F08795089545
:10197000121613061406551FF2CF4695F1DF08C064
:10198000161617061806991FF1CF86957105610581
:1019900008940895E894BB2766277727CB0197F929
:1019A00008950E94E40C0C94970C0E94890C38F066
:1019B0000E94900C20F0952311F00C94450C0C948F
:1019C0004B0C11240C94CB0C0E94A80C70F3959F27
:1019D000C1F3950F50E0551F629FF001729FBB2726
:1019E000F00DB11D639FAA27F00DB11DAA1F649FC2
:1019F0006627B00DA11D661F829F2227B00DA11D75
:101A0000621F739FB00DA11D621F839FA00D611DFA
:101A1000221F749F3327A00D611D231F849F600D1B
:101A2000211D822F762F6A2F11249F5750409AF044
:101A3000F1F088234AF0EE0FFF1FBB1F661F771FD0
:101A4000881F91505040A9F79E3F510580F00C949B
:101A5000450C0C94CB0C5F3FE4F3983ED4F3869591
:101A600077956795B795F795E7959F5FC1F7FE2B3B
:101A7000880F911D9695879597F9089519F416F496
:101A80000C944B0C0C94840D0E94B00CB8F3992369
:101A9000C9F3B6F39F57550B87FF0E94920D0024A0
:101AA000A0E640EA900180585695979528F4805C0E
:101AB000660F771F881F20F026173707480730F476
:101AC000621B730B840B202931294A2BA69517948E
:101AD0000794202531254A2758F7660F771F881F5E
:101AE00020F026173707480730F4620B730B840B7E
:101AF000200D311D411DA09581F7B901842F91580A
:101B0000880F9695879508959F3F31F0915020F466
:101B1000879577956795B795880F911D96958795C9
:101B200097F9089591505040660F771F881FD2F79C
:101B30000895EE0FFF1F0590F491E02D0994FB012D
:101B4000DC0102C001900D9241505040D8F7089539
:041B5000F894FFCF37
:101B5400010130303030320030303030310000009C
:101B640000001103E4024003BA02DD02CA02BB0210
:00000001FF
