:100000000C9463000C948B000C948B000C948B006C
:100010000C948B000C948B000C948B000C948B0034
:100020000C948B000C948B000C948B000C948B0024
:100030000C948B000C948B000C948B000C948B0014
:100040000C94A9020C948B000C948B000C948B00E4
:100050000C948B000C948B000C948B000C948B00F4
:100060000C948B000C948B0000000008000201002F
:100070000003040700000000000000000000000072
:10008000250028002B0000000000240027002A0083
:10009000040404040404040402020202020203032E
:1000A0000303030301020408102040800102040836
:1000B00010200102040810200A0B0C0D0E0F000185
:1000C00002030405CE0711241FBECFEFD8E0DEBF28
:1000D000CDBF21E0A4E3B1E001C01D92AD36B2076F
:1000E000E1F711E0A0E0B1E0ECE4F5E102C0059039
:1000F0000D92A433B107D9F710E0C3E6D0E004C0F5
:100100002197FE010E94950AC236D107C9F70E94C5
:10011000F3020C94A40A0C94000090E0FC01EC554E
:10012000FF4F249180579F4FFC018491882399F0C1
:1001300090E0880F991FFC01EA57FF4FA591B491F9
:10014000FC01E458FF4F859194918FB7F894EC919E
:10015000E22BEC938FBF089590E0FC01E859FF4F2C
:100160002491FC01EC55FF4F3491FC01E057FF4F07
:10017000E491EE23C9F0222339F0233001F1A8F4F1
:10018000213019F1223029F1F0E0EE0FFF1FE45881
:10019000FF4FA591B4918FB7F894EC91611126C0EF
:1001A00030953E233C938FBF08952730A9F0283027
:1001B000C9F0243049F7809180008F7D03C0809181
:1001C00080008F7780938000DFCF84B58F7784BDE8
:1001D000DBCF84B58F7DFBCF8091B0008F7780938C
:1001E000B000D2CF8091B0008F7DF9CF3E2BDACF17
:1001F000682F809151010E94AC008091690190911B
:100200006A018230910538F0880F991F880F991F75
:1002100005970197F1F7089581E00C94F80020917B
:100220004F013091500140915101509152012417DA
:10023000350721F0682F822F0C94AC0008953FB74A
:10024000F8948091360190913701A0913801B091D6
:10025000390126B5A89B05C02F3F19F00196A11DB5
:10026000B11D3FBFBA2FA92F982F8827BC01CD0100
:10027000620F711D811D911D42E0660F771F881F5F
:10028000991F4A95D1F708958EBD00000DB407FE61
:10029000FDCF8EB508950F931F93009153011091D8
:1002A0005401209155013091560140E052E16AE736
:1002B00070E080E0041715072607370740F47695AD
:1002C0006795579547958F5F8630A1F787E0982F00
:1002D000906A9695809581709CBD8DBD80E01F9140
:1002E0000F910C94F800CF93C82F0E944B018C2FD4
:1002F00080620E94440180935701CF910C940C01BD
:1003000081EE0E947301809157010895CF93C82F09
:100310000E944B018C2F0E944401809357018FEF64
:100320000E944401C82F0E940C018C2FCF91089588
:10033000FF920F931F93CF93DF93C82FF62E072FB3
:10034000142F0E944B018C2F80620E9444018093E5
:100350005701CF2DD02F115020F089910E944401D8
:10036000FACFDF91CF911F910F91FF900C940C0168
:10037000CF93DF93CDE4D1E04D896EE071E08AE068
:100380000E9498014D896EE071E080E1DF91CF918C
:100390000C9498010E944B0180E50E9444018093D7
:1003A000570183E70E9444010C940C01CF93DF9323
:1003B000D82FC62F0E944B018D2F80620E944401CE
:1003C000809357018C2F0E944401DF91CF910C94B0
:1003D0000C0180E00E940F018091650190916601FF
:1003E0008230910538F0880F991F880F991F059763
:1003F0000197F1F78091610181110E948001609164
:100400005E016E7F60935E0180E00E94D60182E013
:100410000E948601EEEBF0E0E49161E070E001C043
:10042000660FEA95EAF7682B82E00C94D60160919A
:100430005E0161FD0AC0626060935E0180E00E941F
:10044000D6018BE19EE40197F1F70895E8EBF0E027
:1004500084914091620168E071E00E94980182E01D
:100460000E948601EEEBF0E0E49161E070E001C0F3
:10047000660FEA95EAF7682B82E00C94D6010E9499
:1004800080010E94E9010E94B80181E08093070188
:100490000895419A9BB19F70282F207F922B9BB982
:1004A000409A40989BB19F7040E1840290011124D2
:1004B000892F822B8BB9409A409887EC90E0019766
:1004C000F1F700C000000895CF93DF93EC0189910C
:1004D000882319F00E944902FACFDF91CF91089545
:1004E00041989BB19F70282F207F922B9BB9409AF7
:1004F00040989BB19F7040E1840290011124892FA4
:10050000822B8BB9409A409887EC90E00197F1F7E5
:1005100000C00000089580EC0E9470028BE50E94EC
:100520004902809141018F5C0E9449028FE20E9442
:10053000490283E30E9449028DE50C94490281E05F
:100540000E9470028FE39FE10197F1F700C0000065
:1005500008951F920F920FB60F9211242F933F937D
:100560008F939F93AF93BF9380913B0190913C01F8
:10057000A0913D01B0913E013091350123E0230F60
:100580002D3758F50196A11DB11D2093350180939B
:100590003B0190933C01A0933D01B0933E018091BB
:1005A000360190913701A0913801B091390101963F
:1005B000A11DB11D8093360190933701A09338019E
:1005C000B0933901BF91AF919F918F913F912F913E
:1005D0000F900FBE0F901F90189526E8230F0296DC
:1005E000A11DB11DD2CF789484B5826084BD84B53D
:1005F000816084BD85B5826085BD85B5816085BD1E
:1006000080916E00816080936E00109281008091D5
:10061000810082608093810080918100816080935D
:100620008100809180008160809380008091B10082
:1006300084608093B1008091B00081608093B000AD
:1006400080917A00846080937A0080917A00826041
:1006500080937A0080917A00816080937A00809103
:100660007A00806880937A001092C1008AB1806F0E
:100670008AB987B1836087B92FEF49EF80E02150B5
:1006800040408040E1F700C00000419882E00E94B5
:10069000700288E20E9470028CE00E94700286E084
:1006A0000E94700281E00E94700280E80E94700245
:1006B000EFE1FEE43197F1F700C000000E949F02D5
:1006C000CFB7F89480913A01811124C0EAE9F0E0B3
:1006D0008491EEEAF0E09491E82FF0E0EE0FFF1F36
:1006E000EA57FF4FA591B491EC91E92321F461E021
:1006F0008AE00E94AC008AE00E948D008CB5806187
:100700008CBD8CB580648CBD8DE00E948D008BE02B
:100710000E948D0080913A018F5F80933A01CFBF94
:1007200080914F01909150018F3F980709F4A8C024
:1007300020915101309152012F3F320709F4A0C09E
:100740008217930731F00E948D00809151010E9421
:100750008D0080E00E940F0181E00E94F8000E945D
:100760001F012B013C01E5E0CE2ED12CE12CF12C18
:100770000E941F016419750986099709683E734034
:1007800081059105A8F381E0C81AD108E108F108B4
:1007900098EE490E93E0591E611C711CC114D104DE
:1007A000E104F10429F76FE584E00E94D60186E0B8
:1007B0000E94860145E550E060E070E040936501ED
:1007C000509366016093670170936801682F677D9D
:1007D00086E00E94D60186E00E9486018DE10E949B
:1007E0008601C82F0E94CA018DE10E94860191E016
:1007F000C81390E090935F01882341F0C81302C0B2
:100800000E94CA0160E08DE10E94D6011092610150
:1008100060E08CE10E94D601109263016FE381E0F9
:100820000E94D60163E082E00E94D60180E28093BC
:100830005801C1E1609158018C2F0E94D601CF5F11
:10084000C731C1F763E083E00E94D60185E0809361
:1008500062016CE40E94D60160E787E00E94D60145
:1008600082EE0E9473010E9480016CE080E00E9491
:10087000D60180E00E94860180935E010E941702EB
:1008800086E00E948601887F682F616086E00E9472
:10089000D6014091620150E068E071E089E591E0A5
:1008A0000E949B0A81E0809360010E9426020E94C0
:1008B000B8010E94E9010E94800182EE0E9473014A
:1008C00080917C00806480937C0080917A008768AE
:1008D00080937A0080917C00826080937C005298A3
:1008E0005A9A54E6A52EB12C6AE0262E312C70E0DF
:1008F000872E70E0972E01E01CE980914C0191E079
:10090000980F983050F110924C0100930601F0902E
:100910000701FF2009F49CC180916301F12C35E0AF
:10092000E32E811109C080915801E82E863010F025
:1009300045E0E42EF82EFE180E944B0180EA0E944A
:10094000440180935701C2E0D1E0EA94FFEFEF1633
:1009500051F089910E944401F8CF109206018E5FF8
:1009600080934C01D4CFFA942FEFF21621F080E05F
:100970000E944401F8CF0E940C0181E00E940F0107
:100980008FB7F894C0903B01D0903C01E0903D01BE
:10099000F0903E018FBF8FEF0E947301809157014D
:1009A000807309F0FEC02FB7F89480913B019091BD
:1009B0003C01A0913D01B0913E012FBF8C199D09D2
:1009C000AE09BF0980369105A105B10520F300935A
:1009D000640120914101209301014A998CC18091C9
:1009E0004001109240018F3F09F07DC1809141018B
:1009F000813009F41FC208F481C1823009F46FC24A
:100A000080917C008E7F80937C0080917A0080644E
:100A100080937A0080917A0086FDFCCF80917800E7
:100A200090917900909345018093440180917C00DE
:100A3000816080937C0080917A00806480937A004A
:100A400080917A0086FDFCCFC0917800D09179002A
:100A5000D0934301C0934201BE01645F7140072EF1
:100A6000000C880B990B0E940D092B013C01609131
:100A7000440170914501645F7140072E000C880BA2
:100A8000990B0E940D096B017C01A3019201C30126
:100A9000B2010E9499092B013C01A7019601C701EF
:100AA000B6010E9499099B01AC01C301B2010E94E9
:100AB000F7070E940C0A0E94D5086B01072E000C54
:100AC000880B990B0E940D092B013C01C43FE1E00A
:100AD000DE070CF044C2D0920501C0920401BE01B1
:100AE000DD0F880B990B0E940D09A30192010E9452
:100AF000990920E030E04AEF53E40E9463080E9425
:100B0000D508709303016093020160910401709114
:100B10000501072E000C880B990B0E940D0923E399
:100B200033E343EB5FE30E9499090E94D508EB0190
:100B300070930501609304016091020170910301BB
:100B4000072E000C880B990B0E940D0923E333E359
:100B500043EB5FE30E9499090E94D5089B017093C3
:100B6000030160930201C436D10524F410920501FB
:100B7000109204012436310524F4109203011092DE
:100B80000201FFEF22E547E0F15020404040E1F74D
:100B900000C000008114910409F4AFCE0E9400004F
:100BA000ABCE80E00E940F0160E787E00E94D60193
:100BB0008091570184FD36C080910601813009F093
:100BC00008CF10923F0182EE0E9473010E9417022B
:100BD00060915E01616060935E0180E00E94D601D9
:100BE00060E787E00E94D60181E00E940F018091BA
:100BF00060018823D1F04091620169E571E08AE0EB
:100C00000E9498014091620150E068E071E089E53E
:100C100091E00E949B0A009360010E9426021092BC
:100C20000701D7CE0E948001D4CE82E00E948601C7
:100C3000EEEBF0E0949121E030E001C0220F9A95B4
:100C4000EAF72095622F682382E00E94D601DACF6E
:100C50008FEF0E9473018091570190E095958795E1
:100C600087708630D0F58091630181111BC080911F
:100C70005801E82E873010F096E0E92EF82EFE1885
:100C80000E944B0181E60E94440180935701C6E413
:100C9000D1E0EA94FFEFEF1641F08FEF0E9444019C
:100CA0008993F7CF86E0E82EEBCFFA942FEFF21678
:100CB00021F08FEF0E944401F8CF0E940C0160E404
:100CC00087E00E94D6010E943F0280913F0182305E
:100CD00008F47FCE0E943F027CCE80913F018F5F5F
:100CE00080933F01F2CF81E0820F63E00E94610AAE
:100CF000909341017BCE1092400178CE211104C027
:100D000080910001882389F0109200010E949F02C7
:100D100084E191E00E9464028DE80E9470028FE1FC
:100D200091E00E9464020E948B02609146017091E2
:100D30004701072E000C880B990B0E940D092DEC22
:100D40003CEC4CEC5DE30E94990920E030E040E48B
:100D50005FE30E94F7076B017C018AE80E94700242
:100D600020E030E048EC52E4C701B6010E9463087D
:100D700020E030E040E452E40E94F7070E94D508EA
:100D8000D62F862F660F990BC09744E6489FB00177
:100D9000499F700D1124072E000C880B990B0E949F
:100DA0000D099B01AC01C701B6010E94F6076B015A
:100DB0007C0120E030E040E251E40E94630820E042
:100DC00030E040E452E40E94F7070E94D508C62FA5
:100DD000862F660F990BC0972AE0289FB001299FA4
:100DE000700D1124072E000C880B990B0E940D0921
:100DF0009B01AC01C701B6010E94F60720E030E07C
:100E000040E452E40E94F7070E94D508F62ED13341
:100E10002CF08D2F0E9449028C2F06C080E20E9488
:100E2000490280E2C133C4F70E9449028F2D0E941B
:100E30004902E6CD213089F00E949F0282E291E0D2
:100E40000E9464028CE80E9470028FED0E944902A9
:100E50008FED0E9449020E948B0289E80E94700275
:100E6000C0914801D091490180E2D7FF04C0D195DB
:100E7000C195D1098DE20E9449028AE80E94700260
:100E8000CE01B5010E946D0A40E3460F242F042EC7
:100E9000000C330B205331091203C001139F900D36
:100EA00011248C0F9D1FB1010E946D0AC05D129F1D
:100EB000C00D1124D0E3D60F86EF869FC00D1124FC
:100EC000842F41330CF047C080E20E94490280E247
:100ED000D1330CF042C00E9449028C2FA8CF22309F
:100EE00079F00E949F028AE291E00E9464028DE8FC
:100EF0000E94700282E391E00E9464020E948B02D1
:100F00008AE80E947002C0914A01D0914B01CE0143
:100F1000B5010E946D0AE0E3E60F4E2F0E2E000C85
:100F2000550B405351091403C001159F900D112416
:100F30008C0F9D1FB1010E946D0AC05D149FC00DF2
:100F40001124D0E3D60F96EF969FC00D1124E13304
:100F50000CF4BACF8E2F0E9449028D2FBCCFD092B5
:100F60000301C092020168EE73E06C1B7D0B072E3B
:100F7000000C880B990B0E940D09A30192010E949D
:100F8000990920E030E04AEF53E40E9463080E9490
:100F9000D5087093050160930401B7CDEDE4F1E04D
:100FA00089E090E09383828388E090E09583848356
:100FB00080E896E9A8E9B0E086839783A087B187A7
:100FC00080E28387128A138A85E0858B81E0868B95
:100FD00085E090E0A0E0B0E0848F958FA68FB78F7A
:100FE00084E391E091838083148608955058BB2751
:100FF000AA270E940E080C945F090E94510938F03C
:101000000E94580920F039F49F3F19F426F40C94FB
:101010004E090EF4E095E7FB0C944809E92F0E9475
:10102000700958F3BA17620773078407950720F011
:1010300079F4A6F50C9492090EF4E0950B2EBA2FD4
:10104000A02D0B01B90190010C01CA01A0011124CE
:10105000FF27591B99F0593F50F4503E68F11A167A
:10106000F040A22F232F342F4427585FF3CF46950B
:1010700037952795A795F0405395C9F77EF41F162D
:10108000BA0B620B730B840BBAF09150A1F0FF0FF7
:10109000BB1F661F771F881FC2F70EC0BA0F621FE3
:1010A000731F841F48F4879577956795B795F795D3
:1010B0009E3F08F0B0CF9395880F08F09927EE0F68
:1010C0009795879508950E9477080C945F090E9470
:1010D000580958F00E94510940F029F45F3F29F067
:1010E0000C94480951110C9493090C944E090E94D8
:1010F000700968F39923B1F3552391F3951B550BB0
:10110000BB27AA2762177307840738F09F5F5F4FDA
:10111000220F331F441FAA1FA9F335D00E2E3AF019
:10112000E0E832D091505040E695001CCAF72BD031
:10113000FE2F29D0660F771F881FBB1F2617370782
:101140004807AB07B0E809F0BB0B802DBF01FF27B4
:1011500093585F4F3AF09E3F510578F00C94480940
:101160000C9493095F3FE4F3983ED4F3869577950A
:101170006795B795F7959F5FC9F7880F911D96956D
:10118000879597F90895E1E0660F771F881FBB1FC9
:10119000621773078407BA0720F0621B730B840B76
:1011A000BA0BEE1F88F7E09508950E94DC0868945A
:1011B000B1110C94930908950E94780988F09F5703
:1011C00098F0B92F9927B751B0F0E1F0660F771F6B
:1011D000881F991F1AF0BA95C9F714C0B13091F061
:1011E0000E949209B1E008950C949209672F782F1C
:1011F0008827B85F39F0B93FCCF386957795679526
:10120000B395D9F73EF490958095709561957F4F91
:101210008F4F9F4F0895E89409C097FB3EF4909537
:101220008095709561957F4F8F4F9F4F9923A9F0BF
:10123000F92F96E9BB279395F6958795779567954E
:10124000B795F111F8CFFAF4BB0F11F460FF1BC092
:101250006F5F7F4F8F4F9F4F16C0882311F096E925
:1012600011C0772321F09EE8872F762F05C06623D3
:1012700071F096E8862F70E060E02AF09A95660F8C
:10128000771F881FDAF7880F9695879597F9089545
:1012900097F99F6780E870E060E008959FEF80EC29
:1012A000089500240A9416161706180609060895CC
:1012B00000240A9412161306140605060895092E32
:1012C0000394000C11F4882352F0BB0F40F4BF2BA1
:1012D00011F460FF04C06F5F7F4F8F4F9F4F0895E1
:1012E00057FD9058440F551F59F05F3F71F04795D7
:1012F000880F97FB991F61F09F3F79F087950895BC
:10130000121613061406551FF2CF4695F1DF08C0DA
:10131000161617061806991FF1CF869571056105F7
:1013200008940895E894BB2766277727CB0197F99F
:1013300008950E94AC090C945F090E94510938F08D
:101340000E94580920F0952311F00C9448090C9440
:101350004E0911240C9493090E94700970F3959F13
:10136000C1F3950F50E0551F629FF001729FBB279C
:10137000F00DB11D639FAA27F00DB11DAA1F649F38
:101380006627B00DA11D661F829F2227B00DA11DEB
:10139000621F739FB00DA11D621F839FA00D611D71
:1013A000221F749F3327A00D611D231F849F600D92
:1013B000211D822F762F6A2F11249F5750409AF0BB
:1013C000F1F088234AF0EE0FFF1FBB1F661F771F47
:1013D000881F91505040A9F79E3F510580F00C9412
:1013E00048090C9493095F3FE4F3983ED4F3869543
:1013F00077956795B795F795E7959F5FC1F7FE2BB2
:10140000880F911D9695879597F9089519F416F40C
:101410000C944E090C944C0A0E947809B8F3992355
:10142000C9F3B6F39F57550B87FF0E945A0A002451
:10143000A0E640EA900180585695979528F4805C84
:10144000660F771F881F20F026173707480730F4EC
:10145000621B730B840B202931294A2BA695179404
:101460000794202531254A2758F7660F771F881FD4
:1014700020F026173707480730F4620B730B840BF4
:10148000200D311D411DA09581F7B901842F915880
:10149000880F9695879508959F3F31F0915020F4DD
:1014A000879577956795B795880F911D9695879540
:1014B00097F9089591505040660F771F881FD2F713
:1014C0000895991B79E004C0991F961708F0961BA0
:1014D000881F7A95C9F78095089597FB072E16F413
:1014E000009407D077FD09D00E94810A07FC05D03F
:1014F0003EF4909581959F4F0895709561957F4F2B
:101500000895AA1BBB1B51E107C0AA1FBB1FA6174A
:10151000B70710F0A61BB70B881F991F5A95A9F79C
:1015200080959095BC01CD010895EE0FFF1F0590A9
:10153000F491E02D0994FB01DC0102C001900D92B1
:0C15400041505040D8F70895F894FFCFB8
:10154C0001FF00000000010130303030320030303B
:10155C003030310044697374616E63653A20006306
:10156C006D004C6576656C3A20004C696768743A7E
:04157C0020007500D6
:00000001FF
